{
	"contracts/Session_01/LearnMultiplePlants.sol": {
		"LearnMultiplePlants": {
			"abi": [
				{
					"inputs": [],
					"name": "addPlant",
					"outputs": [
						{
							"internalType": "uint256",
							"name": "",
							"type": "uint256"
						}
					],
					"stateMutability": "nonpayable",
					"type": "function"
				},
				{
					"inputs": [
						{
							"internalType": "uint256",
							"name": "_plantId",
							"type": "uint256"
						}
					],
					"name": "getPlant",
					"outputs": [
						{
							"components": [
								{
									"internalType": "uint256",
									"name": "id",
									"type": "uint256"
								},
								{
									"internalType": "address",
									"name": "owner",
									"type": "address"
								},
								{
									"internalType": "enum LearnMultiplePlants.GrowthStage",
									"name": "stage",
									"type": "uint8"
								},
								{
									"internalType": "uint8",
									"name": "waterLevel",
									"type": "uint8"
								},
								{
									"internalType": "bool",
									"name": "exists",
									"type": "bool"
								}
							],
							"internalType": "struct LearnMultiplePlants.Plant",
							"name": "",
							"type": "tuple"
						}
					],
					"stateMutability": "view",
					"type": "function"
				},
				{
					"inputs": [],
					"name": "plantCounter",
					"outputs": [
						{
							"internalType": "uint256",
							"name": "",
							"type": "uint256"
						}
					],
					"stateMutability": "view",
					"type": "function"
				},
				{
					"inputs": [
						{
							"internalType": "uint256",
							"name": "",
							"type": "uint256"
						}
					],
					"name": "plants",
					"outputs": [
						{
							"internalType": "uint256",
							"name": "id",
							"type": "uint256"
						},
						{
							"internalType": "address",
							"name": "owner",
							"type": "address"
						},
						{
							"internalType": "enum LearnMultiplePlants.GrowthStage",
							"name": "stage",
							"type": "uint8"
						},
						{
							"internalType": "uint8",
							"name": "waterLevel",
							"type": "uint8"
						},
						{
							"internalType": "bool",
							"name": "exists",
							"type": "bool"
						}
					],
					"stateMutability": "view",
					"type": "function"
				},
				{
					"inputs": [
						{
							"internalType": "uint256",
							"name": "_plantId",
							"type": "uint256"
						}
					],
					"name": "waterPlant",
					"outputs": [],
					"stateMutability": "nonpayable",
					"type": "function"
				}
			],
			"devdoc": {
				"kind": "dev",
				"methods": {},
				"version": 1
			},
			"evm": {
				"assembly": "    /* \"contracts/Session_01/LearnMultiplePlants.sol\":61:959  contract LearnMultiplePlants{... */\n  mstore(0x40, 0x80)\n  callvalue\n  dup1\n  iszero\n  tag_1\n  jumpi\n  revert(0x00, 0x00)\ntag_1:\n  pop\n  dataSize(sub_0)\n  dup1\n  dataOffset(sub_0)\n  0x00\n  codecopy\n  0x00\n  return\nstop\n\nsub_0: assembly {\n        /* \"contracts/Session_01/LearnMultiplePlants.sol\":61:959  contract LearnMultiplePlants{... */\n      mstore(0x40, 0x80)\n      callvalue\n      dup1\n      iszero\n      tag_1\n      jumpi\n      revert(0x00, 0x00)\n    tag_1:\n      pop\n      jumpi(tag_2, lt(calldatasize, 0x04))\n      shr(0xe0, calldataload(0x00))\n      dup1\n      0x38cba41c\n      eq\n      tag_3\n      jumpi\n      dup1\n      0x8dd2361c\n      eq\n      tag_4\n      jumpi\n      dup1\n      0x9886bcfa\n      eq\n      tag_5\n      jumpi\n      dup1\n      0x9c471749\n      eq\n      tag_6\n      jumpi\n      dup1\n      0xed0b1f5f\n      eq\n      tag_7\n      jumpi\n    tag_2:\n      revert(0x00, 0x00)\n        /* \"contracts/Session_01/LearnMultiplePlants.sol\":405:726  function addPlant() public returns (uint256){... */\n    tag_3:\n      tag_8\n      tag_9\n      jump\t// in\n    tag_8:\n      mload(0x40)\n      tag_10\n      swap2\n      swap1\n      tag_11\n      jump\t// in\n    tag_10:\n      mload(0x40)\n      dup1\n      swap2\n      sub\n      swap1\n      return\n        /* \"contracts/Session_01/LearnMultiplePlants.sol\":321:360  mapping(uint256 => Plant) public plants */\n    tag_4:\n      tag_12\n      0x04\n      dup1\n      calldatasize\n      sub\n      dup2\n      add\n      swap1\n      tag_13\n      swap2\n      swap1\n      tag_14\n      jump\t// in\n    tag_13:\n      tag_15\n      jump\t// in\n    tag_12:\n      mload(0x40)\n      tag_16\n      swap6\n      swap5\n      swap4\n      swap3\n      swap2\n      swap1\n      tag_17\n      jump\t// in\n    tag_16:\n      mload(0x40)\n      dup1\n      swap2\n      sub\n      swap1\n      return\n        /* \"contracts/Session_01/LearnMultiplePlants.sol\":734:831  function waterPlant(uint256 _plantId) public {... */\n    tag_5:\n      tag_18\n      0x04\n      dup1\n      calldatasize\n      sub\n      dup2\n      add\n      swap1\n      tag_19\n      swap2\n      swap1\n      tag_14\n      jump\t// in\n    tag_19:\n      tag_20\n      jump\t// in\n    tag_18:\n      stop\n        /* \"contracts/Session_01/LearnMultiplePlants.sol\":369:396  uint256 public plantCounter */\n    tag_6:\n      tag_21\n      tag_22\n      jump\t// in\n    tag_21:\n      mload(0x40)\n      tag_23\n      swap2\n      swap1\n      tag_11\n      jump\t// in\n    tag_23:\n      mload(0x40)\n      dup1\n      swap2\n      sub\n      swap1\n      return\n        /* \"contracts/Session_01/LearnMultiplePlants.sol\":839:950  function getPlant(uint256 _plantId) public view returns(Plant memory){... */\n    tag_7:\n      tag_24\n      0x04\n      dup1\n      calldatasize\n      sub\n      dup2\n      add\n      swap1\n      tag_25\n      swap2\n      swap1\n      tag_14\n      jump\t// in\n    tag_25:\n      tag_26\n      jump\t// in\n    tag_24:\n      mload(0x40)\n      tag_27\n      swap2\n      swap1\n      tag_28\n      jump\t// in\n    tag_27:\n      mload(0x40)\n      dup1\n      swap2\n      sub\n      swap1\n      return\n        /* \"contracts/Session_01/LearnMultiplePlants.sol\":405:726  function addPlant() public returns (uint256){... */\n    tag_9:\n        /* \"contracts/Session_01/LearnMultiplePlants.sol\":441:448  uint256 */\n      0x00\n        /* \"contracts/Session_01/LearnMultiplePlants.sol\":460:472  plantCounter */\n      0x01\n      0x00\n        /* \"contracts/Session_01/LearnMultiplePlants.sol\":460:474  plantCounter++ */\n      dup2\n      sload\n      dup1\n      swap3\n      swap2\n      swap1\n      tag_30\n      swap1\n      tag_31\n      jump\t// in\n    tag_30:\n      swap2\n      swap1\n      pop\n      sstore\n      pop\n        /* \"contracts/Session_01/LearnMultiplePlants.sol\":510:686  Plant({... */\n      mload(0x40)\n      dup1\n      0xa0\n      add\n      0x40\n      mstore\n      dup1\n        /* \"contracts/Session_01/LearnMultiplePlants.sol\":535:547  plantCounter */\n      sload(0x01)\n        /* \"contracts/Session_01/LearnMultiplePlants.sol\":510:686  Plant({... */\n      dup2\n      mstore\n      0x20\n      add\n        /* \"contracts/Session_01/LearnMultiplePlants.sol\":569:579  msg.sender */\n      caller\n        /* \"contracts/Session_01/LearnMultiplePlants.sol\":510:686  Plant({... */\n      0xffffffffffffffffffffffffffffffffffffffff\n      and\n      dup2\n      mstore\n      0x20\n      add\n        /* \"contracts/Session_01/LearnMultiplePlants.sol\":601:617  GrowthStage.SEED */\n      0x00\n        /* \"contracts/Session_01/LearnMultiplePlants.sol\":510:686  Plant({... */\n      0x03\n      dup2\n      gt\n      iszero\n      tag_32\n      jumpi\n      tag_33\n      tag_34\n      jump\t// in\n    tag_33:\n    tag_32:\n      dup2\n      mstore\n      0x20\n      add\n        /* \"contracts/Session_01/LearnMultiplePlants.sol\":644:647  100 */\n      0x64\n        /* \"contracts/Session_01/LearnMultiplePlants.sol\":510:686  Plant({... */\n      0xff\n      and\n      dup2\n      mstore\n      0x20\n      add\n        /* \"contracts/Session_01/LearnMultiplePlants.sol\":670:674  true */\n      0x01\n        /* \"contracts/Session_01/LearnMultiplePlants.sol\":510:686  Plant({... */\n      iszero\n      iszero\n      dup2\n      mstore\n      pop\n        /* \"contracts/Session_01/LearnMultiplePlants.sol\":487:493  plants */\n      0x00\n        /* \"contracts/Session_01/LearnMultiplePlants.sol\":487:507  plants[plantCounter] */\n      0x00\n        /* \"contracts/Session_01/LearnMultiplePlants.sol\":494:506  plantCounter */\n      sload(0x01)\n        /* \"contracts/Session_01/LearnMultiplePlants.sol\":487:507  plants[plantCounter] */\n      dup2\n      mstore\n      0x20\n      add\n      swap1\n      dup2\n      mstore\n      0x20\n      add\n      0x00\n      keccak256\n        /* \"contracts/Session_01/LearnMultiplePlants.sol\":487:686  plants[plantCounter] = Plant({... */\n      0x00\n      dup3\n      add\n      mload\n      dup2\n      0x00\n      add\n      sstore\n      0x20\n      dup3\n      add\n      mload\n      dup2\n      0x01\n      add\n      exp(0x0100, 0x00)\n      dup2\n      sload\n      dup2\n      0xffffffffffffffffffffffffffffffffffffffff\n      mul\n      not\n      and\n      swap1\n      dup4\n      0xffffffffffffffffffffffffffffffffffffffff\n      and\n      mul\n      or\n      swap1\n      sstore\n      pop\n      0x40\n      dup3\n      add\n      mload\n      dup2\n      0x01\n      add\n      exp(0x0100, 0x14)\n      dup2\n      sload\n      dup2\n      0xff\n      mul\n      not\n      and\n      swap1\n      dup4\n      0x03\n      dup2\n      gt\n      iszero\n      tag_35\n      jumpi\n      tag_36\n      tag_34\n      jump\t// in\n    tag_36:\n    tag_35:\n      mul\n      or\n      swap1\n      sstore\n      pop\n      0x60\n      dup3\n      add\n      mload\n      dup2\n      0x01\n      add\n      exp(0x0100, 0x15)\n      dup2\n      sload\n      dup2\n      0xff\n      mul\n      not\n      and\n      swap1\n      dup4\n      0xff\n      and\n      mul\n      or\n      swap1\n      sstore\n      pop\n      0x80\n      dup3\n      add\n      mload\n      dup2\n      0x01\n      add\n      exp(0x0100, 0x16)\n      dup2\n      sload\n      dup2\n      0xff\n      mul\n      not\n      and\n      swap1\n      dup4\n      iszero\n      iszero\n      mul\n      or\n      swap1\n      sstore\n      pop\n      swap1\n      pop\n      pop\n        /* \"contracts/Session_01/LearnMultiplePlants.sol\":706:718  plantCounter */\n      sload(0x01)\n        /* \"contracts/Session_01/LearnMultiplePlants.sol\":699:718  return plantCounter */\n      swap1\n      pop\n        /* \"contracts/Session_01/LearnMultiplePlants.sol\":405:726  function addPlant() public returns (uint256){... */\n      swap1\n      jump\t// out\n        /* \"contracts/Session_01/LearnMultiplePlants.sol\":321:360  mapping(uint256 => Plant) public plants */\n    tag_15:\n      mstore(0x20, 0x00)\n      dup1\n      0x00\n      mstore\n      keccak256(0x00, 0x40)\n      0x00\n      swap2\n      pop\n      swap1\n      pop\n      dup1\n      0x00\n      add\n      sload\n      swap1\n      dup1\n      0x01\n      add\n      0x00\n      swap1\n      sload\n      swap1\n      0x0100\n      exp\n      swap1\n      div\n      0xffffffffffffffffffffffffffffffffffffffff\n      and\n      swap1\n      dup1\n      0x01\n      add\n      0x14\n      swap1\n      sload\n      swap1\n      0x0100\n      exp\n      swap1\n      div\n      0xff\n      and\n      swap1\n      dup1\n      0x01\n      add\n      0x15\n      swap1\n      sload\n      swap1\n      0x0100\n      exp\n      swap1\n      div\n      0xff\n      and\n      swap1\n      dup1\n      0x01\n      add\n      0x16\n      swap1\n      sload\n      swap1\n      0x0100\n      exp\n      swap1\n      div\n      0xff\n      and\n      swap1\n      pop\n      dup6\n      jump\t// out\n        /* \"contracts/Session_01/LearnMultiplePlants.sol\":734:831  function waterPlant(uint256 _plantId) public {... */\n    tag_20:\n        /* \"contracts/Session_01/LearnMultiplePlants.sol\":820:823  100 */\n      0x64\n        /* \"contracts/Session_01/LearnMultiplePlants.sol\":790:796  plants */\n      0x00\n        /* \"contracts/Session_01/LearnMultiplePlants.sol\":790:806  plants[_plantId] */\n      0x00\n        /* \"contracts/Session_01/LearnMultiplePlants.sol\":797:805  _plantId */\n      dup4\n        /* \"contracts/Session_01/LearnMultiplePlants.sol\":790:806  plants[_plantId] */\n      dup2\n      mstore\n      0x20\n      add\n      swap1\n      dup2\n      mstore\n      0x20\n      add\n      0x00\n      keccak256\n        /* \"contracts/Session_01/LearnMultiplePlants.sol\":790:817  plants[_plantId].waterLevel */\n      0x01\n      add\n      0x15\n        /* \"contracts/Session_01/LearnMultiplePlants.sol\":790:823  plants[_plantId].waterLevel = 100 */\n      0x0100\n      exp\n      dup2\n      sload\n      dup2\n      0xff\n      mul\n      not\n      and\n      swap1\n      dup4\n      0xff\n      and\n      mul\n      or\n      swap1\n      sstore\n      pop\n        /* \"contracts/Session_01/LearnMultiplePlants.sol\":734:831  function waterPlant(uint256 _plantId) public {... */\n      pop\n      jump\t// out\n        /* \"contracts/Session_01/LearnMultiplePlants.sol\":369:396  uint256 public plantCounter */\n    tag_22:\n      sload(0x01)\n      dup2\n      jump\t// out\n        /* \"contracts/Session_01/LearnMultiplePlants.sol\":839:950  function getPlant(uint256 _plantId) public view returns(Plant memory){... */\n    tag_26:\n        /* \"contracts/Session_01/LearnMultiplePlants.sol\":895:907  Plant memory */\n      tag_38\n      tag_39\n      jump\t// in\n    tag_38:\n        /* \"contracts/Session_01/LearnMultiplePlants.sol\":926:932  plants */\n      0x00\n        /* \"contracts/Session_01/LearnMultiplePlants.sol\":926:942  plants[_plantId] */\n      0x00\n        /* \"contracts/Session_01/LearnMultiplePlants.sol\":933:941  _plantId */\n      dup4\n        /* \"contracts/Session_01/LearnMultiplePlants.sol\":926:942  plants[_plantId] */\n      dup2\n      mstore\n      0x20\n      add\n      swap1\n      dup2\n      mstore\n      0x20\n      add\n      0x00\n      keccak256\n        /* \"contracts/Session_01/LearnMultiplePlants.sol\":919:942  return plants[_plantId] */\n      mload(0x40)\n      dup1\n      0xa0\n      add\n      0x40\n      mstore\n      swap1\n      dup2\n      0x00\n      dup3\n      add\n      sload\n      dup2\n      mstore\n      0x20\n      add\n      0x01\n      dup3\n      add\n      0x00\n      swap1\n      sload\n      swap1\n      0x0100\n      exp\n      swap1\n      div\n      0xffffffffffffffffffffffffffffffffffffffff\n      and\n      0xffffffffffffffffffffffffffffffffffffffff\n      and\n      0xffffffffffffffffffffffffffffffffffffffff\n      and\n      dup2\n      mstore\n      0x20\n      add\n      0x01\n      dup3\n      add\n      0x14\n      swap1\n      sload\n      swap1\n      0x0100\n      exp\n      swap1\n      div\n      0xff\n      and\n      0x03\n      dup2\n      gt\n      iszero\n      tag_41\n      jumpi\n      tag_42\n      tag_34\n      jump\t// in\n    tag_42:\n    tag_41:\n      0x03\n      dup2\n      gt\n      iszero\n      tag_43\n      jumpi\n      tag_44\n      tag_34\n      jump\t// in\n    tag_44:\n    tag_43:\n      dup2\n      mstore\n      0x20\n      add\n      0x01\n      dup3\n      add\n      0x15\n      swap1\n      sload\n      swap1\n      0x0100\n      exp\n      swap1\n      div\n      0xff\n      and\n      0xff\n      and\n      0xff\n      and\n      dup2\n      mstore\n      0x20\n      add\n      0x01\n      dup3\n      add\n      0x16\n      swap1\n      sload\n      swap1\n      0x0100\n      exp\n      swap1\n      div\n      0xff\n      and\n      iszero\n      iszero\n      iszero\n      iszero\n      dup2\n      mstore\n      pop\n      pop\n      swap1\n      pop\n        /* \"contracts/Session_01/LearnMultiplePlants.sol\":839:950  function getPlant(uint256 _plantId) public view returns(Plant memory){... */\n      swap2\n      swap1\n      pop\n      jump\t// out\n    tag_39:\n      mload(0x40)\n      dup1\n      0xa0\n      add\n      0x40\n      mstore\n      dup1\n      0x00\n      dup2\n      mstore\n      0x20\n      add\n      and(0xffffffffffffffffffffffffffffffffffffffff, 0x00)\n      dup2\n      mstore\n      0x20\n      add\n      0x00\n      0x03\n      dup2\n      gt\n      iszero\n      tag_45\n      jumpi\n      tag_46\n      tag_34\n      jump\t// in\n    tag_46:\n    tag_45:\n      dup2\n      mstore\n      0x20\n      add\n      and(0xff, 0x00)\n      dup2\n      mstore\n      0x20\n      add\n      iszero(iszero(0x00))\n      dup2\n      mstore\n      pop\n      swap1\n      jump\t// out\n        /* \"#utility.yul\":7:84   */\n    tag_47:\n        /* \"#utility.yul\":44:51   */\n      0x00\n        /* \"#utility.yul\":73:78   */\n      dup2\n        /* \"#utility.yul\":62:78   */\n      swap1\n      pop\n        /* \"#utility.yul\":7:84   */\n      swap2\n      swap1\n      pop\n      jump\t// out\n        /* \"#utility.yul\":90:208   */\n    tag_48:\n        /* \"#utility.yul\":177:201   */\n      tag_75\n        /* \"#utility.yul\":195:200   */\n      dup2\n        /* \"#utility.yul\":177:201   */\n      tag_47\n      jump\t// in\n    tag_75:\n        /* \"#utility.yul\":172:175   */\n      dup3\n        /* \"#utility.yul\":165:202   */\n      mstore\n        /* \"#utility.yul\":90:208   */\n      pop\n      pop\n      jump\t// out\n        /* \"#utility.yul\":214:436   */\n    tag_11:\n        /* \"#utility.yul\":307:311   */\n      0x00\n        /* \"#utility.yul\":345:347   */\n      0x20\n        /* \"#utility.yul\":334:343   */\n      dup3\n        /* \"#utility.yul\":330:348   */\n      add\n        /* \"#utility.yul\":322:348   */\n      swap1\n      pop\n        /* \"#utility.yul\":358:429   */\n      tag_77\n        /* \"#utility.yul\":426:427   */\n      0x00\n        /* \"#utility.yul\":415:424   */\n      dup4\n        /* \"#utility.yul\":411:428   */\n      add\n        /* \"#utility.yul\":402:408   */\n      dup5\n        /* \"#utility.yul\":358:429   */\n      tag_48\n      jump\t// in\n    tag_77:\n        /* \"#utility.yul\":214:436   */\n      swap3\n      swap2\n      pop\n      pop\n      jump\t// out\n        /* \"#utility.yul\":523:640   */\n    tag_50:\n        /* \"#utility.yul\":632:633   */\n      0x00\n        /* \"#utility.yul\":629:630   */\n      0x00\n        /* \"#utility.yul\":622:634   */\n      revert\n        /* \"#utility.yul\":769:891   */\n    tag_52:\n        /* \"#utility.yul\":842:866   */\n      tag_82\n        /* \"#utility.yul\":860:865   */\n      dup2\n        /* \"#utility.yul\":842:866   */\n      tag_47\n      jump\t// in\n    tag_82:\n        /* \"#utility.yul\":835:840   */\n      dup2\n        /* \"#utility.yul\":832:867   */\n      eq\n        /* \"#utility.yul\":822:885   */\n      tag_83\n      jumpi\n        /* \"#utility.yul\":881:882   */\n      0x00\n        /* \"#utility.yul\":878:879   */\n      0x00\n        /* \"#utility.yul\":871:883   */\n      revert\n        /* \"#utility.yul\":822:885   */\n    tag_83:\n        /* \"#utility.yul\":769:891   */\n      pop\n      jump\t// out\n        /* \"#utility.yul\":897:1036   */\n    tag_53:\n        /* \"#utility.yul\":943:948   */\n      0x00\n        /* \"#utility.yul\":981:987   */\n      dup2\n        /* \"#utility.yul\":968:988   */\n      calldataload\n        /* \"#utility.yul\":959:988   */\n      swap1\n      pop\n        /* \"#utility.yul\":997:1030   */\n      tag_85\n        /* \"#utility.yul\":1024:1029   */\n      dup2\n        /* \"#utility.yul\":997:1030   */\n      tag_52\n      jump\t// in\n    tag_85:\n        /* \"#utility.yul\":897:1036   */\n      swap3\n      swap2\n      pop\n      pop\n      jump\t// out\n        /* \"#utility.yul\":1042:1371   */\n    tag_14:\n        /* \"#utility.yul\":1101:1107   */\n      0x00\n        /* \"#utility.yul\":1150:1152   */\n      0x20\n        /* \"#utility.yul\":1138:1147   */\n      dup3\n        /* \"#utility.yul\":1129:1136   */\n      dup5\n        /* \"#utility.yul\":1125:1148   */\n      sub\n        /* \"#utility.yul\":1121:1153   */\n      slt\n        /* \"#utility.yul\":1118:1237   */\n      iszero\n      tag_87\n      jumpi\n        /* \"#utility.yul\":1156:1235   */\n      tag_88\n      tag_50\n      jump\t// in\n    tag_88:\n        /* \"#utility.yul\":1118:1237   */\n    tag_87:\n        /* \"#utility.yul\":1276:1277   */\n      0x00\n        /* \"#utility.yul\":1301:1354   */\n      tag_89\n        /* \"#utility.yul\":1346:1353   */\n      dup5\n        /* \"#utility.yul\":1337:1343   */\n      dup3\n        /* \"#utility.yul\":1326:1335   */\n      dup6\n        /* \"#utility.yul\":1322:1344   */\n      add\n        /* \"#utility.yul\":1301:1354   */\n      tag_53\n      jump\t// in\n    tag_89:\n        /* \"#utility.yul\":1291:1354   */\n      swap2\n      pop\n        /* \"#utility.yul\":1247:1364   */\n      pop\n        /* \"#utility.yul\":1042:1371   */\n      swap3\n      swap2\n      pop\n      pop\n      jump\t// out\n        /* \"#utility.yul\":1377:1503   */\n    tag_54:\n        /* \"#utility.yul\":1414:1421   */\n      0x00\n        /* \"#utility.yul\":1454:1496   */\n      0xffffffffffffffffffffffffffffffffffffffff\n        /* \"#utility.yul\":1447:1452   */\n      dup3\n        /* \"#utility.yul\":1443:1497   */\n      and\n        /* \"#utility.yul\":1432:1497   */\n      swap1\n      pop\n        /* \"#utility.yul\":1377:1503   */\n      swap2\n      swap1\n      pop\n      jump\t// out\n        /* \"#utility.yul\":1509:1605   */\n    tag_55:\n        /* \"#utility.yul\":1546:1553   */\n      0x00\n        /* \"#utility.yul\":1575:1599   */\n      tag_92\n        /* \"#utility.yul\":1593:1598   */\n      dup3\n        /* \"#utility.yul\":1575:1599   */\n      tag_54\n      jump\t// in\n    tag_92:\n        /* \"#utility.yul\":1564:1599   */\n      swap1\n      pop\n        /* \"#utility.yul\":1509:1605   */\n      swap2\n      swap1\n      pop\n      jump\t// out\n        /* \"#utility.yul\":1611:1729   */\n    tag_56:\n        /* \"#utility.yul\":1698:1722   */\n      tag_94\n        /* \"#utility.yul\":1716:1721   */\n      dup2\n        /* \"#utility.yul\":1698:1722   */\n      tag_55\n      jump\t// in\n    tag_94:\n        /* \"#utility.yul\":1693:1696   */\n      dup3\n        /* \"#utility.yul\":1686:1723   */\n      mstore\n        /* \"#utility.yul\":1611:1729   */\n      pop\n      pop\n      jump\t// out\n        /* \"#utility.yul\":1735:1915   */\n    tag_34:\n        /* \"#utility.yul\":1783:1860   */\n      0x4e487b7100000000000000000000000000000000000000000000000000000000\n        /* \"#utility.yul\":1780:1781   */\n      0x00\n        /* \"#utility.yul\":1773:1861   */\n      mstore\n        /* \"#utility.yul\":1880:1884   */\n      0x21\n        /* \"#utility.yul\":1877:1878   */\n      0x04\n        /* \"#utility.yul\":1870:1885   */\n      mstore\n        /* \"#utility.yul\":1904:1908   */\n      0x24\n        /* \"#utility.yul\":1901:1902   */\n      0x00\n        /* \"#utility.yul\":1894:1909   */\n      revert\n        /* \"#utility.yul\":1921:2039   */\n    tag_57:\n        /* \"#utility.yul\":2007:2008   */\n      0x04\n        /* \"#utility.yul\":2000:2005   */\n      dup2\n        /* \"#utility.yul\":1997:2009   */\n      lt\n        /* \"#utility.yul\":1987:2033   */\n      tag_97\n      jumpi\n        /* \"#utility.yul\":2013:2031   */\n      tag_98\n      tag_34\n      jump\t// in\n    tag_98:\n        /* \"#utility.yul\":1987:2033   */\n    tag_97:\n        /* \"#utility.yul\":1921:2039   */\n      pop\n      jump\t// out\n        /* \"#utility.yul\":2045:2182   */\n    tag_58:\n        /* \"#utility.yul\":2095:2102   */\n      0x00\n        /* \"#utility.yul\":2124:2129   */\n      dup2\n        /* \"#utility.yul\":2113:2129   */\n      swap1\n      pop\n        /* \"#utility.yul\":2130:2176   */\n      tag_100\n        /* \"#utility.yul\":2170:2175   */\n      dup3\n        /* \"#utility.yul\":2130:2176   */\n      tag_57\n      jump\t// in\n    tag_100:\n        /* \"#utility.yul\":2045:2182   */\n      swap2\n      swap1\n      pop\n      jump\t// out\n        /* \"#utility.yul\":2188:2325   */\n    tag_59:\n        /* \"#utility.yul\":2249:2258   */\n      0x00\n        /* \"#utility.yul\":2282:2319   */\n      tag_102\n        /* \"#utility.yul\":2313:2318   */\n      dup3\n        /* \"#utility.yul\":2282:2319   */\n      tag_58\n      jump\t// in\n    tag_102:\n        /* \"#utility.yul\":2269:2319   */\n      swap1\n      pop\n        /* \"#utility.yul\":2188:2325   */\n      swap2\n      swap1\n      pop\n      jump\t// out\n        /* \"#utility.yul\":2331:2484   */\n    tag_60:\n        /* \"#utility.yul\":2429:2477   */\n      tag_104\n        /* \"#utility.yul\":2471:2476   */\n      dup2\n        /* \"#utility.yul\":2429:2477   */\n      tag_59\n      jump\t// in\n    tag_104:\n        /* \"#utility.yul\":2424:2427   */\n      dup3\n        /* \"#utility.yul\":2417:2478   */\n      mstore\n        /* \"#utility.yul\":2331:2484   */\n      pop\n      pop\n      jump\t// out\n        /* \"#utility.yul\":2490:2576   */\n    tag_61:\n        /* \"#utility.yul\":2525:2532   */\n      0x00\n        /* \"#utility.yul\":2565:2569   */\n      0xff\n        /* \"#utility.yul\":2558:2563   */\n      dup3\n        /* \"#utility.yul\":2554:2570   */\n      and\n        /* \"#utility.yul\":2543:2570   */\n      swap1\n      pop\n        /* \"#utility.yul\":2490:2576   */\n      swap2\n      swap1\n      pop\n      jump\t// out\n        /* \"#utility.yul\":2582:2694   */\n    tag_62:\n        /* \"#utility.yul\":2665:2687   */\n      tag_107\n        /* \"#utility.yul\":2681:2686   */\n      dup2\n        /* \"#utility.yul\":2665:2687   */\n      tag_61\n      jump\t// in\n    tag_107:\n        /* \"#utility.yul\":2660:2663   */\n      dup3\n        /* \"#utility.yul\":2653:2688   */\n      mstore\n        /* \"#utility.yul\":2582:2694   */\n      pop\n      pop\n      jump\t// out\n        /* \"#utility.yul\":2700:2790   */\n    tag_63:\n        /* \"#utility.yul\":2734:2741   */\n      0x00\n        /* \"#utility.yul\":2777:2782   */\n      dup2\n        /* \"#utility.yul\":2770:2783   */\n      iszero\n        /* \"#utility.yul\":2763:2784   */\n      iszero\n        /* \"#utility.yul\":2752:2784   */\n      swap1\n      pop\n        /* \"#utility.yul\":2700:2790   */\n      swap2\n      swap1\n      pop\n      jump\t// out\n        /* \"#utility.yul\":2796:2905   */\n    tag_64:\n        /* \"#utility.yul\":2877:2898   */\n      tag_110\n        /* \"#utility.yul\":2892:2897   */\n      dup2\n        /* \"#utility.yul\":2877:2898   */\n      tag_63\n      jump\t// in\n    tag_110:\n        /* \"#utility.yul\":2872:2875   */\n      dup3\n        /* \"#utility.yul\":2865:2899   */\n      mstore\n        /* \"#utility.yul\":2796:2905   */\n      pop\n      pop\n      jump\t// out\n        /* \"#utility.yul\":2911:3577   */\n    tag_17:\n        /* \"#utility.yul\":3117:3121   */\n      0x00\n        /* \"#utility.yul\":3155:3158   */\n      0xa0\n        /* \"#utility.yul\":3144:3153   */\n      dup3\n        /* \"#utility.yul\":3140:3159   */\n      add\n        /* \"#utility.yul\":3132:3159   */\n      swap1\n      pop\n        /* \"#utility.yul\":3169:3240   */\n      tag_112\n        /* \"#utility.yul\":3237:3238   */\n      0x00\n        /* \"#utility.yul\":3226:3235   */\n      dup4\n        /* \"#utility.yul\":3222:3239   */\n      add\n        /* \"#utility.yul\":3213:3219   */\n      dup9\n        /* \"#utility.yul\":3169:3240   */\n      tag_48\n      jump\t// in\n    tag_112:\n        /* \"#utility.yul\":3250:3322   */\n      tag_113\n        /* \"#utility.yul\":3318:3320   */\n      0x20\n        /* \"#utility.yul\":3307:3316   */\n      dup4\n        /* \"#utility.yul\":3303:3321   */\n      add\n        /* \"#utility.yul\":3294:3300   */\n      dup8\n        /* \"#utility.yul\":3250:3322   */\n      tag_56\n      jump\t// in\n    tag_113:\n        /* \"#utility.yul\":3332:3415   */\n      tag_114\n        /* \"#utility.yul\":3411:3413   */\n      0x40\n        /* \"#utility.yul\":3400:3409   */\n      dup4\n        /* \"#utility.yul\":3396:3414   */\n      add\n        /* \"#utility.yul\":3387:3393   */\n      dup7\n        /* \"#utility.yul\":3332:3415   */\n      tag_60\n      jump\t// in\n    tag_114:\n        /* \"#utility.yul\":3425:3493   */\n      tag_115\n        /* \"#utility.yul\":3489:3491   */\n      0x60\n        /* \"#utility.yul\":3478:3487   */\n      dup4\n        /* \"#utility.yul\":3474:3492   */\n      add\n        /* \"#utility.yul\":3465:3471   */\n      dup6\n        /* \"#utility.yul\":3425:3493   */\n      tag_62\n      jump\t// in\n    tag_115:\n        /* \"#utility.yul\":3503:3570   */\n      tag_116\n        /* \"#utility.yul\":3565:3568   */\n      0x80\n        /* \"#utility.yul\":3554:3563   */\n      dup4\n        /* \"#utility.yul\":3550:3569   */\n      add\n        /* \"#utility.yul\":3541:3547   */\n      dup5\n        /* \"#utility.yul\":3503:3570   */\n      tag_64\n      jump\t// in\n    tag_116:\n        /* \"#utility.yul\":2911:3577   */\n      swap7\n      swap6\n      pop\n      pop\n      pop\n      pop\n      pop\n      pop\n      jump\t// out\n        /* \"#utility.yul\":3583:3691   */\n    tag_65:\n        /* \"#utility.yul\":3660:3684   */\n      tag_118\n        /* \"#utility.yul\":3678:3683   */\n      dup2\n        /* \"#utility.yul\":3660:3684   */\n      tag_47\n      jump\t// in\n    tag_118:\n        /* \"#utility.yul\":3655:3658   */\n      dup3\n        /* \"#utility.yul\":3648:3685   */\n      mstore\n        /* \"#utility.yul\":3583:3691   */\n      pop\n      pop\n      jump\t// out\n        /* \"#utility.yul\":3697:3805   */\n    tag_66:\n        /* \"#utility.yul\":3774:3798   */\n      tag_120\n        /* \"#utility.yul\":3792:3797   */\n      dup2\n        /* \"#utility.yul\":3774:3798   */\n      tag_55\n      jump\t// in\n    tag_120:\n        /* \"#utility.yul\":3769:3772   */\n      dup3\n        /* \"#utility.yul\":3762:3799   */\n      mstore\n        /* \"#utility.yul\":3697:3805   */\n      pop\n      pop\n      jump\t// out\n        /* \"#utility.yul\":3811:3954   */\n    tag_67:\n        /* \"#utility.yul\":3899:3947   */\n      tag_122\n        /* \"#utility.yul\":3941:3946   */\n      dup2\n        /* \"#utility.yul\":3899:3947   */\n      tag_59\n      jump\t// in\n    tag_122:\n        /* \"#utility.yul\":3894:3897   */\n      dup3\n        /* \"#utility.yul\":3887:3948   */\n      mstore\n        /* \"#utility.yul\":3811:3954   */\n      pop\n      pop\n      jump\t// out\n        /* \"#utility.yul\":3960:4062   */\n    tag_68:\n        /* \"#utility.yul\":4033:4055   */\n      tag_124\n        /* \"#utility.yul\":4049:4054   */\n      dup2\n        /* \"#utility.yul\":4033:4055   */\n      tag_61\n      jump\t// in\n    tag_124:\n        /* \"#utility.yul\":4028:4031   */\n      dup3\n        /* \"#utility.yul\":4021:4056   */\n      mstore\n        /* \"#utility.yul\":3960:4062   */\n      pop\n      pop\n      jump\t// out\n        /* \"#utility.yul\":4068:4167   */\n    tag_69:\n        /* \"#utility.yul\":4139:4160   */\n      tag_126\n        /* \"#utility.yul\":4154:4159   */\n      dup2\n        /* \"#utility.yul\":4139:4160   */\n      tag_63\n      jump\t// in\n    tag_126:\n        /* \"#utility.yul\":4134:4137   */\n      dup3\n        /* \"#utility.yul\":4127:4161   */\n      mstore\n        /* \"#utility.yul\":4068:4167   */\n      pop\n      pop\n      jump\t// out\n        /* \"#utility.yul\":4249:5279   */\n    tag_70:\n        /* \"#utility.yul\":4388:4392   */\n      0xa0\n        /* \"#utility.yul\":4383:4386   */\n      dup3\n        /* \"#utility.yul\":4379:4393   */\n      add\n        /* \"#utility.yul\":4473:4477   */\n      0x00\n        /* \"#utility.yul\":4466:4471   */\n      dup3\n        /* \"#utility.yul\":4462:4478   */\n      add\n        /* \"#utility.yul\":4456:4479   */\n      mload\n        /* \"#utility.yul\":4492:4555   */\n      tag_128\n        /* \"#utility.yul\":4549:4553   */\n      0x00\n        /* \"#utility.yul\":4544:4547   */\n      dup6\n        /* \"#utility.yul\":4540:4554   */\n      add\n        /* \"#utility.yul\":4526:4538   */\n      dup3\n        /* \"#utility.yul\":4492:4555   */\n      tag_65\n      jump\t// in\n    tag_128:\n        /* \"#utility.yul\":4403:4565   */\n      pop\n        /* \"#utility.yul\":4648:4652   */\n      0x20\n        /* \"#utility.yul\":4641:4646   */\n      dup3\n        /* \"#utility.yul\":4637:4653   */\n      add\n        /* \"#utility.yul\":4631:4654   */\n      mload\n        /* \"#utility.yul\":4667:4730   */\n      tag_129\n        /* \"#utility.yul\":4724:4728   */\n      0x20\n        /* \"#utility.yul\":4719:4722   */\n      dup6\n        /* \"#utility.yul\":4715:4729   */\n      add\n        /* \"#utility.yul\":4701:4713   */\n      dup3\n        /* \"#utility.yul\":4667:4730   */\n      tag_66\n      jump\t// in\n    tag_129:\n        /* \"#utility.yul\":4575:4740   */\n      pop\n        /* \"#utility.yul\":4823:4827   */\n      0x40\n        /* \"#utility.yul\":4816:4821   */\n      dup3\n        /* \"#utility.yul\":4812:4828   */\n      add\n        /* \"#utility.yul\":4806:4829   */\n      mload\n        /* \"#utility.yul\":4842:4916   */\n      tag_130\n        /* \"#utility.yul\":4910:4914   */\n      0x40\n        /* \"#utility.yul\":4905:4908   */\n      dup6\n        /* \"#utility.yul\":4901:4915   */\n      add\n        /* \"#utility.yul\":4887:4899   */\n      dup3\n        /* \"#utility.yul\":4842:4916   */\n      tag_67\n      jump\t// in\n    tag_130:\n        /* \"#utility.yul\":4750:4926   */\n      pop\n        /* \"#utility.yul\":5014:5018   */\n      0x60\n        /* \"#utility.yul\":5007:5012   */\n      dup3\n        /* \"#utility.yul\":5003:5019   */\n      add\n        /* \"#utility.yul\":4997:5020   */\n      mload\n        /* \"#utility.yul\":5033:5092   */\n      tag_131\n        /* \"#utility.yul\":5086:5090   */\n      0x60\n        /* \"#utility.yul\":5081:5084   */\n      dup6\n        /* \"#utility.yul\":5077:5091   */\n      add\n        /* \"#utility.yul\":5063:5075   */\n      dup3\n        /* \"#utility.yul\":5033:5092   */\n      tag_68\n      jump\t// in\n    tag_131:\n        /* \"#utility.yul\":4936:5102   */\n      pop\n        /* \"#utility.yul\":5186:5190   */\n      0x80\n        /* \"#utility.yul\":5179:5184   */\n      dup3\n        /* \"#utility.yul\":5175:5191   */\n      add\n        /* \"#utility.yul\":5169:5192   */\n      mload\n        /* \"#utility.yul\":5205:5262   */\n      tag_132\n        /* \"#utility.yul\":5256:5260   */\n      0x80\n        /* \"#utility.yul\":5251:5254   */\n      dup6\n        /* \"#utility.yul\":5247:5261   */\n      add\n        /* \"#utility.yul\":5233:5245   */\n      dup3\n        /* \"#utility.yul\":5205:5262   */\n      tag_69\n      jump\t// in\n    tag_132:\n        /* \"#utility.yul\":5112:5272   */\n      pop\n        /* \"#utility.yul\":4357:5279   */\n      pop\n        /* \"#utility.yul\":4249:5279   */\n      pop\n      pop\n      jump\t// out\n        /* \"#utility.yul\":5285:5592   */\n    tag_28:\n        /* \"#utility.yul\":5420:5424   */\n      0x00\n        /* \"#utility.yul\":5458:5461   */\n      0xa0\n        /* \"#utility.yul\":5447:5456   */\n      dup3\n        /* \"#utility.yul\":5443:5462   */\n      add\n        /* \"#utility.yul\":5435:5462   */\n      swap1\n      pop\n        /* \"#utility.yul\":5472:5585   */\n      tag_134\n        /* \"#utility.yul\":5582:5583   */\n      0x00\n        /* \"#utility.yul\":5571:5580   */\n      dup4\n        /* \"#utility.yul\":5567:5584   */\n      add\n        /* \"#utility.yul\":5558:5564   */\n      dup5\n        /* \"#utility.yul\":5472:5585   */\n      tag_70\n      jump\t// in\n    tag_134:\n        /* \"#utility.yul\":5285:5592   */\n      swap3\n      swap2\n      pop\n      pop\n      jump\t// out\n        /* \"#utility.yul\":5598:5778   */\n    tag_71:\n        /* \"#utility.yul\":5646:5723   */\n      0x4e487b7100000000000000000000000000000000000000000000000000000000\n        /* \"#utility.yul\":5643:5644   */\n      0x00\n        /* \"#utility.yul\":5636:5724   */\n      mstore\n        /* \"#utility.yul\":5743:5747   */\n      0x11\n        /* \"#utility.yul\":5740:5741   */\n      0x04\n        /* \"#utility.yul\":5733:5748   */\n      mstore\n        /* \"#utility.yul\":5767:5771   */\n      0x24\n        /* \"#utility.yul\":5764:5765   */\n      0x00\n        /* \"#utility.yul\":5757:5772   */\n      revert\n        /* \"#utility.yul\":5784:6017   */\n    tag_31:\n        /* \"#utility.yul\":5823:5826   */\n      0x00\n        /* \"#utility.yul\":5846:5870   */\n      tag_137\n        /* \"#utility.yul\":5864:5869   */\n      dup3\n        /* \"#utility.yul\":5846:5870   */\n      tag_47\n      jump\t// in\n    tag_137:\n        /* \"#utility.yul\":5837:5870   */\n      swap2\n      pop\n        /* \"#utility.yul\":5892:5958   */\n      0xffffffffffffffffffffffffffffffffffffffffffffffffffffffffffffffff\n        /* \"#utility.yul\":5885:5890   */\n      dup3\n        /* \"#utility.yul\":5882:5959   */\n      sub\n        /* \"#utility.yul\":5879:5982   */\n      tag_138\n      jumpi\n        /* \"#utility.yul\":5962:5980   */\n      tag_139\n      tag_71\n      jump\t// in\n    tag_139:\n        /* \"#utility.yul\":5879:5982   */\n    tag_138:\n        /* \"#utility.yul\":6009:6010   */\n      0x01\n        /* \"#utility.yul\":6002:6007   */\n      dup3\n        /* \"#utility.yul\":5998:6011   */\n      add\n        /* \"#utility.yul\":5991:6011   */\n      swap1\n      pop\n        /* \"#utility.yul\":5784:6017   */\n      swap2\n      swap1\n      pop\n      jump\t// out\n\n    auxdata: 0xa26469706673582212207c1b2127486ed57896782712a2852a597b94382e495c5f89ca6a97b90f6bf05d64736f6c634300081e0033\n}\n",
				"bytecode": {
					"linkReferences": {},
					"object": "6080604052348015600e575f5ffd5b506107968061001c5f395ff3fe608060405234801561000f575f5ffd5b5060043610610055575f3560e01c806338cba41c146100595780638dd2361c146100775780639886bcfa146100ab5780639c471749146100c7578063ed0b1f5f146100e5575b5f5ffd5b610061610115565b60405161006e9190610478565b60405180910390f35b610091600480360381019061008c91906104bf565b610261565b6040516100a29594939291906105d1565b60405180910390f35b6100c560048036038101906100c091906104bf565b6102d8565b005b6100cf610308565b6040516100dc9190610478565b60405180910390f35b6100ff60048036038101906100fa91906104bf565b61030e565b60405161010c91906106d3565b60405180910390f35b5f60015f81548092919061012890610719565b91905055506040518060a0016040528060015481526020013373ffffffffffffffffffffffffffffffffffffffff1681526020015f600381111561016f5761016e610529565b5b8152602001606460ff168152602001600115158152505f5f60015481526020019081526020015f205f820151815f01556020820151816001015f6101000a81548173ffffffffffffffffffffffffffffffffffffffff021916908373ffffffffffffffffffffffffffffffffffffffff16021790555060408201518160010160146101000a81548160ff021916908360038111156102105761020f610529565b5b021790555060608201518160010160156101000a81548160ff021916908360ff16021790555060808201518160010160166101000a81548160ff021916908315150217905550905050600154905090565b5f602052805f5260405f205f91509050805f015490806001015f9054906101000a900473ffffffffffffffffffffffffffffffffffffffff16908060010160149054906101000a900460ff16908060010160159054906101000a900460ff16908060010160169054906101000a900460ff16905085565b60645f5f8381526020019081526020015f2060010160156101000a81548160ff021916908360ff16021790555050565b60015481565b610316610409565b5f5f8381526020019081526020015f206040518060a00160405290815f8201548152602001600182015f9054906101000a900473ffffffffffffffffffffffffffffffffffffffff1673ffffffffffffffffffffffffffffffffffffffff1673ffffffffffffffffffffffffffffffffffffffff1681526020016001820160149054906101000a900460ff1660038111156103b4576103b3610529565b5b60038111156103c6576103c5610529565b5b81526020016001820160159054906101000a900460ff1660ff1660ff1681526020016001820160169054906101000a900460ff1615151515815250509050919050565b6040518060a001604052805f81526020015f73ffffffffffffffffffffffffffffffffffffffff1681526020015f600381111561044957610448610529565b5b81526020015f60ff1681526020015f151581525090565b5f819050919050565b61047281610460565b82525050565b5f60208201905061048b5f830184610469565b92915050565b5f5ffd5b61049e81610460565b81146104a8575f5ffd5b50565b5f813590506104b981610495565b92915050565b5f602082840312156104d4576104d3610491565b5b5f6104e1848285016104ab565b91505092915050565b5f73ffffffffffffffffffffffffffffffffffffffff82169050919050565b5f610513826104ea565b9050919050565b61052381610509565b82525050565b7f4e487b71000000000000000000000000000000000000000000000000000000005f52602160045260245ffd5b6004811061056757610566610529565b5b50565b5f81905061057782610556565b919050565b5f6105868261056a565b9050919050565b6105968161057c565b82525050565b5f60ff82169050919050565b6105b18161059c565b82525050565b5f8115159050919050565b6105cb816105b7565b82525050565b5f60a0820190506105e45f830188610469565b6105f1602083018761051a565b6105fe604083018661058d565b61060b60608301856105a8565b61061860808301846105c2565b9695505050505050565b61062b81610460565b82525050565b61063a81610509565b82525050565b6106498161057c565b82525050565b6106588161059c565b82525050565b610667816105b7565b82525050565b60a082015f8201516106815f850182610622565b5060208201516106946020850182610631565b5060408201516106a76040850182610640565b5060608201516106ba606085018261064f565b5060808201516106cd608085018261065e565b50505050565b5f60a0820190506106e65f83018461066d565b92915050565b7f4e487b71000000000000000000000000000000000000000000000000000000005f52601160045260245ffd5b5f61072382610460565b91507fffffffffffffffffffffffffffffffffffffffffffffffffffffffffffffffff8203610755576107546106ec565b5b60018201905091905056fea26469706673582212207c1b2127486ed57896782712a2852a597b94382e495c5f89ca6a97b90f6bf05d64736f6c634300081e0033",
					"opcodes": "PUSH1 0x80 PUSH1 0x40 MSTORE CALLVALUE DUP1 ISZERO PUSH1 0xE JUMPI PUSH0 PUSH0 REVERT JUMPDEST POP PUSH2 0x796 DUP1 PUSH2 0x1C PUSH0 CODECOPY PUSH0 RETURN INVALID PUSH1 0x80 PUSH1 0x40 MSTORE CALLVALUE DUP1 ISZERO PUSH2 0xF JUMPI PUSH0 PUSH0 REVERT JUMPDEST POP PUSH1 0x4 CALLDATASIZE LT PUSH2 0x55 JUMPI PUSH0 CALLDATALOAD PUSH1 0xE0 SHR DUP1 PUSH4 0x38CBA41C EQ PUSH2 0x59 JUMPI DUP1 PUSH4 0x8DD2361C EQ PUSH2 0x77 JUMPI DUP1 PUSH4 0x9886BCFA EQ PUSH2 0xAB JUMPI DUP1 PUSH4 0x9C471749 EQ PUSH2 0xC7 JUMPI DUP1 PUSH4 0xED0B1F5F EQ PUSH2 0xE5 JUMPI JUMPDEST PUSH0 PUSH0 REVERT JUMPDEST PUSH2 0x61 PUSH2 0x115 JUMP JUMPDEST PUSH1 0x40 MLOAD PUSH2 0x6E SWAP2 SWAP1 PUSH2 0x478 JUMP JUMPDEST PUSH1 0x40 MLOAD DUP1 SWAP2 SUB SWAP1 RETURN JUMPDEST PUSH2 0x91 PUSH1 0x4 DUP1 CALLDATASIZE SUB DUP2 ADD SWAP1 PUSH2 0x8C SWAP2 SWAP1 PUSH2 0x4BF JUMP JUMPDEST PUSH2 0x261 JUMP JUMPDEST PUSH1 0x40 MLOAD PUSH2 0xA2 SWAP6 SWAP5 SWAP4 SWAP3 SWAP2 SWAP1 PUSH2 0x5D1 JUMP JUMPDEST PUSH1 0x40 MLOAD DUP1 SWAP2 SUB SWAP1 RETURN JUMPDEST PUSH2 0xC5 PUSH1 0x4 DUP1 CALLDATASIZE SUB DUP2 ADD SWAP1 PUSH2 0xC0 SWAP2 SWAP1 PUSH2 0x4BF JUMP JUMPDEST PUSH2 0x2D8 JUMP JUMPDEST STOP JUMPDEST PUSH2 0xCF PUSH2 0x308 JUMP JUMPDEST PUSH1 0x40 MLOAD PUSH2 0xDC SWAP2 SWAP1 PUSH2 0x478 JUMP JUMPDEST PUSH1 0x40 MLOAD DUP1 SWAP2 SUB SWAP1 RETURN JUMPDEST PUSH2 0xFF PUSH1 0x4 DUP1 CALLDATASIZE SUB DUP2 ADD SWAP1 PUSH2 0xFA SWAP2 SWAP1 PUSH2 0x4BF JUMP JUMPDEST PUSH2 0x30E JUMP JUMPDEST PUSH1 0x40 MLOAD PUSH2 0x10C SWAP2 SWAP1 PUSH2 0x6D3 JUMP JUMPDEST PUSH1 0x40 MLOAD DUP1 SWAP2 SUB SWAP1 RETURN JUMPDEST PUSH0 PUSH1 0x1 PUSH0 DUP2 SLOAD DUP1 SWAP3 SWAP2 SWAP1 PUSH2 0x128 SWAP1 PUSH2 0x719 JUMP JUMPDEST SWAP2 SWAP1 POP SSTORE POP PUSH1 0x40 MLOAD DUP1 PUSH1 0xA0 ADD PUSH1 0x40 MSTORE DUP1 PUSH1 0x1 SLOAD DUP2 MSTORE PUSH1 0x20 ADD CALLER PUSH20 0xFFFFFFFFFFFFFFFFFFFFFFFFFFFFFFFFFFFFFFFF AND DUP2 MSTORE PUSH1 0x20 ADD PUSH0 PUSH1 0x3 DUP2 GT ISZERO PUSH2 0x16F JUMPI PUSH2 0x16E PUSH2 0x529 JUMP JUMPDEST JUMPDEST DUP2 MSTORE PUSH1 0x20 ADD PUSH1 0x64 PUSH1 0xFF AND DUP2 MSTORE PUSH1 0x20 ADD PUSH1 0x1 ISZERO ISZERO DUP2 MSTORE POP PUSH0 PUSH0 PUSH1 0x1 SLOAD DUP2 MSTORE PUSH1 0x20 ADD SWAP1 DUP2 MSTORE PUSH1 0x20 ADD PUSH0 KECCAK256 PUSH0 DUP3 ADD MLOAD DUP2 PUSH0 ADD SSTORE PUSH1 0x20 DUP3 ADD MLOAD DUP2 PUSH1 0x1 ADD PUSH0 PUSH2 0x100 EXP DUP2 SLOAD DUP2 PUSH20 0xFFFFFFFFFFFFFFFFFFFFFFFFFFFFFFFFFFFFFFFF MUL NOT AND SWAP1 DUP4 PUSH20 0xFFFFFFFFFFFFFFFFFFFFFFFFFFFFFFFFFFFFFFFF AND MUL OR SWAP1 SSTORE POP PUSH1 0x40 DUP3 ADD MLOAD DUP2 PUSH1 0x1 ADD PUSH1 0x14 PUSH2 0x100 EXP DUP2 SLOAD DUP2 PUSH1 0xFF MUL NOT AND SWAP1 DUP4 PUSH1 0x3 DUP2 GT ISZERO PUSH2 0x210 JUMPI PUSH2 0x20F PUSH2 0x529 JUMP JUMPDEST JUMPDEST MUL OR SWAP1 SSTORE POP PUSH1 0x60 DUP3 ADD MLOAD DUP2 PUSH1 0x1 ADD PUSH1 0x15 PUSH2 0x100 EXP DUP2 SLOAD DUP2 PUSH1 0xFF MUL NOT AND SWAP1 DUP4 PUSH1 0xFF AND MUL OR SWAP1 SSTORE POP PUSH1 0x80 DUP3 ADD MLOAD DUP2 PUSH1 0x1 ADD PUSH1 0x16 PUSH2 0x100 EXP DUP2 SLOAD DUP2 PUSH1 0xFF MUL NOT AND SWAP1 DUP4 ISZERO ISZERO MUL OR SWAP1 SSTORE POP SWAP1 POP POP PUSH1 0x1 SLOAD SWAP1 POP SWAP1 JUMP JUMPDEST PUSH0 PUSH1 0x20 MSTORE DUP1 PUSH0 MSTORE PUSH1 0x40 PUSH0 KECCAK256 PUSH0 SWAP2 POP SWAP1 POP DUP1 PUSH0 ADD SLOAD SWAP1 DUP1 PUSH1 0x1 ADD PUSH0 SWAP1 SLOAD SWAP1 PUSH2 0x100 EXP SWAP1 DIV PUSH20 0xFFFFFFFFFFFFFFFFFFFFFFFFFFFFFFFFFFFFFFFF AND SWAP1 DUP1 PUSH1 0x1 ADD PUSH1 0x14 SWAP1 SLOAD SWAP1 PUSH2 0x100 EXP SWAP1 DIV PUSH1 0xFF AND SWAP1 DUP1 PUSH1 0x1 ADD PUSH1 0x15 SWAP1 SLOAD SWAP1 PUSH2 0x100 EXP SWAP1 DIV PUSH1 0xFF AND SWAP1 DUP1 PUSH1 0x1 ADD PUSH1 0x16 SWAP1 SLOAD SWAP1 PUSH2 0x100 EXP SWAP1 DIV PUSH1 0xFF AND SWAP1 POP DUP6 JUMP JUMPDEST PUSH1 0x64 PUSH0 PUSH0 DUP4 DUP2 MSTORE PUSH1 0x20 ADD SWAP1 DUP2 MSTORE PUSH1 0x20 ADD PUSH0 KECCAK256 PUSH1 0x1 ADD PUSH1 0x15 PUSH2 0x100 EXP DUP2 SLOAD DUP2 PUSH1 0xFF MUL NOT AND SWAP1 DUP4 PUSH1 0xFF AND MUL OR SWAP1 SSTORE POP POP JUMP JUMPDEST PUSH1 0x1 SLOAD DUP2 JUMP JUMPDEST PUSH2 0x316 PUSH2 0x409 JUMP JUMPDEST PUSH0 PUSH0 DUP4 DUP2 MSTORE PUSH1 0x20 ADD SWAP1 DUP2 MSTORE PUSH1 0x20 ADD PUSH0 KECCAK256 PUSH1 0x40 MLOAD DUP1 PUSH1 0xA0 ADD PUSH1 0x40 MSTORE SWAP1 DUP2 PUSH0 DUP3 ADD SLOAD DUP2 MSTORE PUSH1 0x20 ADD PUSH1 0x1 DUP3 ADD PUSH0 SWAP1 SLOAD SWAP1 PUSH2 0x100 EXP SWAP1 DIV PUSH20 0xFFFFFFFFFFFFFFFFFFFFFFFFFFFFFFFFFFFFFFFF AND PUSH20 0xFFFFFFFFFFFFFFFFFFFFFFFFFFFFFFFFFFFFFFFF AND PUSH20 0xFFFFFFFFFFFFFFFFFFFFFFFFFFFFFFFFFFFFFFFF AND DUP2 MSTORE PUSH1 0x20 ADD PUSH1 0x1 DUP3 ADD PUSH1 0x14 SWAP1 SLOAD SWAP1 PUSH2 0x100 EXP SWAP1 DIV PUSH1 0xFF AND PUSH1 0x3 DUP2 GT ISZERO PUSH2 0x3B4 JUMPI PUSH2 0x3B3 PUSH2 0x529 JUMP JUMPDEST JUMPDEST PUSH1 0x3 DUP2 GT ISZERO PUSH2 0x3C6 JUMPI PUSH2 0x3C5 PUSH2 0x529 JUMP JUMPDEST JUMPDEST DUP2 MSTORE PUSH1 0x20 ADD PUSH1 0x1 DUP3 ADD PUSH1 0x15 SWAP1 SLOAD SWAP1 PUSH2 0x100 EXP SWAP1 DIV PUSH1 0xFF AND PUSH1 0xFF AND PUSH1 0xFF AND DUP2 MSTORE PUSH1 0x20 ADD PUSH1 0x1 DUP3 ADD PUSH1 0x16 SWAP1 SLOAD SWAP1 PUSH2 0x100 EXP SWAP1 DIV PUSH1 0xFF AND ISZERO ISZERO ISZERO ISZERO DUP2 MSTORE POP POP SWAP1 POP SWAP2 SWAP1 POP JUMP JUMPDEST PUSH1 0x40 MLOAD DUP1 PUSH1 0xA0 ADD PUSH1 0x40 MSTORE DUP1 PUSH0 DUP2 MSTORE PUSH1 0x20 ADD PUSH0 PUSH20 0xFFFFFFFFFFFFFFFFFFFFFFFFFFFFFFFFFFFFFFFF AND DUP2 MSTORE PUSH1 0x20 ADD PUSH0 PUSH1 0x3 DUP2 GT ISZERO PUSH2 0x449 JUMPI PUSH2 0x448 PUSH2 0x529 JUMP JUMPDEST JUMPDEST DUP2 MSTORE PUSH1 0x20 ADD PUSH0 PUSH1 0xFF AND DUP2 MSTORE PUSH1 0x20 ADD PUSH0 ISZERO ISZERO DUP2 MSTORE POP SWAP1 JUMP JUMPDEST PUSH0 DUP2 SWAP1 POP SWAP2 SWAP1 POP JUMP JUMPDEST PUSH2 0x472 DUP2 PUSH2 0x460 JUMP JUMPDEST DUP3 MSTORE POP POP JUMP JUMPDEST PUSH0 PUSH1 0x20 DUP3 ADD SWAP1 POP PUSH2 0x48B PUSH0 DUP4 ADD DUP5 PUSH2 0x469 JUMP JUMPDEST SWAP3 SWAP2 POP POP JUMP JUMPDEST PUSH0 PUSH0 REVERT JUMPDEST PUSH2 0x49E DUP2 PUSH2 0x460 JUMP JUMPDEST DUP2 EQ PUSH2 0x4A8 JUMPI PUSH0 PUSH0 REVERT JUMPDEST POP JUMP JUMPDEST PUSH0 DUP2 CALLDATALOAD SWAP1 POP PUSH2 0x4B9 DUP2 PUSH2 0x495 JUMP JUMPDEST SWAP3 SWAP2 POP POP JUMP JUMPDEST PUSH0 PUSH1 0x20 DUP3 DUP5 SUB SLT ISZERO PUSH2 0x4D4 JUMPI PUSH2 0x4D3 PUSH2 0x491 JUMP JUMPDEST JUMPDEST PUSH0 PUSH2 0x4E1 DUP5 DUP3 DUP6 ADD PUSH2 0x4AB JUMP JUMPDEST SWAP2 POP POP SWAP3 SWAP2 POP POP JUMP JUMPDEST PUSH0 PUSH20 0xFFFFFFFFFFFFFFFFFFFFFFFFFFFFFFFFFFFFFFFF DUP3 AND SWAP1 POP SWAP2 SWAP1 POP JUMP JUMPDEST PUSH0 PUSH2 0x513 DUP3 PUSH2 0x4EA JUMP JUMPDEST SWAP1 POP SWAP2 SWAP1 POP JUMP JUMPDEST PUSH2 0x523 DUP2 PUSH2 0x509 JUMP JUMPDEST DUP3 MSTORE POP POP JUMP JUMPDEST PUSH32 0x4E487B7100000000000000000000000000000000000000000000000000000000 PUSH0 MSTORE PUSH1 0x21 PUSH1 0x4 MSTORE PUSH1 0x24 PUSH0 REVERT JUMPDEST PUSH1 0x4 DUP2 LT PUSH2 0x567 JUMPI PUSH2 0x566 PUSH2 0x529 JUMP JUMPDEST JUMPDEST POP JUMP JUMPDEST PUSH0 DUP2 SWAP1 POP PUSH2 0x577 DUP3 PUSH2 0x556 JUMP JUMPDEST SWAP2 SWAP1 POP JUMP JUMPDEST PUSH0 PUSH2 0x586 DUP3 PUSH2 0x56A JUMP JUMPDEST SWAP1 POP SWAP2 SWAP1 POP JUMP JUMPDEST PUSH2 0x596 DUP2 PUSH2 0x57C JUMP JUMPDEST DUP3 MSTORE POP POP JUMP JUMPDEST PUSH0 PUSH1 0xFF DUP3 AND SWAP1 POP SWAP2 SWAP1 POP JUMP JUMPDEST PUSH2 0x5B1 DUP2 PUSH2 0x59C JUMP JUMPDEST DUP3 MSTORE POP POP JUMP JUMPDEST PUSH0 DUP2 ISZERO ISZERO SWAP1 POP SWAP2 SWAP1 POP JUMP JUMPDEST PUSH2 0x5CB DUP2 PUSH2 0x5B7 JUMP JUMPDEST DUP3 MSTORE POP POP JUMP JUMPDEST PUSH0 PUSH1 0xA0 DUP3 ADD SWAP1 POP PUSH2 0x5E4 PUSH0 DUP4 ADD DUP9 PUSH2 0x469 JUMP JUMPDEST PUSH2 0x5F1 PUSH1 0x20 DUP4 ADD DUP8 PUSH2 0x51A JUMP JUMPDEST PUSH2 0x5FE PUSH1 0x40 DUP4 ADD DUP7 PUSH2 0x58D JUMP JUMPDEST PUSH2 0x60B PUSH1 0x60 DUP4 ADD DUP6 PUSH2 0x5A8 JUMP JUMPDEST PUSH2 0x618 PUSH1 0x80 DUP4 ADD DUP5 PUSH2 0x5C2 JUMP JUMPDEST SWAP7 SWAP6 POP POP POP POP POP POP JUMP JUMPDEST PUSH2 0x62B DUP2 PUSH2 0x460 JUMP JUMPDEST DUP3 MSTORE POP POP JUMP JUMPDEST PUSH2 0x63A DUP2 PUSH2 0x509 JUMP JUMPDEST DUP3 MSTORE POP POP JUMP JUMPDEST PUSH2 0x649 DUP2 PUSH2 0x57C JUMP JUMPDEST DUP3 MSTORE POP POP JUMP JUMPDEST PUSH2 0x658 DUP2 PUSH2 0x59C JUMP JUMPDEST DUP3 MSTORE POP POP JUMP JUMPDEST PUSH2 0x667 DUP2 PUSH2 0x5B7 JUMP JUMPDEST DUP3 MSTORE POP POP JUMP JUMPDEST PUSH1 0xA0 DUP3 ADD PUSH0 DUP3 ADD MLOAD PUSH2 0x681 PUSH0 DUP6 ADD DUP3 PUSH2 0x622 JUMP JUMPDEST POP PUSH1 0x20 DUP3 ADD MLOAD PUSH2 0x694 PUSH1 0x20 DUP6 ADD DUP3 PUSH2 0x631 JUMP JUMPDEST POP PUSH1 0x40 DUP3 ADD MLOAD PUSH2 0x6A7 PUSH1 0x40 DUP6 ADD DUP3 PUSH2 0x640 JUMP JUMPDEST POP PUSH1 0x60 DUP3 ADD MLOAD PUSH2 0x6BA PUSH1 0x60 DUP6 ADD DUP3 PUSH2 0x64F JUMP JUMPDEST POP PUSH1 0x80 DUP3 ADD MLOAD PUSH2 0x6CD PUSH1 0x80 DUP6 ADD DUP3 PUSH2 0x65E JUMP JUMPDEST POP POP POP POP JUMP JUMPDEST PUSH0 PUSH1 0xA0 DUP3 ADD SWAP1 POP PUSH2 0x6E6 PUSH0 DUP4 ADD DUP5 PUSH2 0x66D JUMP JUMPDEST SWAP3 SWAP2 POP POP JUMP JUMPDEST PUSH32 0x4E487B7100000000000000000000000000000000000000000000000000000000 PUSH0 MSTORE PUSH1 0x11 PUSH1 0x4 MSTORE PUSH1 0x24 PUSH0 REVERT JUMPDEST PUSH0 PUSH2 0x723 DUP3 PUSH2 0x460 JUMP JUMPDEST SWAP2 POP PUSH32 0xFFFFFFFFFFFFFFFFFFFFFFFFFFFFFFFFFFFFFFFFFFFFFFFFFFFFFFFFFFFFFFFF DUP3 SUB PUSH2 0x755 JUMPI PUSH2 0x754 PUSH2 0x6EC JUMP JUMPDEST JUMPDEST PUSH1 0x1 DUP3 ADD SWAP1 POP SWAP2 SWAP1 POP JUMP INVALID LOG2 PUSH5 0x6970667358 0x22 SLT KECCAK256 PUSH29 0x1B2127486ED57896782712A2852A597B94382E495C5F89CA6A97B90F6B CREATE TSTORE PUSH5 0x736F6C6343 STOP ADDMOD 0x1E STOP CALLER "
				},
				"gasEstimates": {
					"creation": {
						"codeDepositCost": "388400",
						"executionCost": "422",
						"totalCost": "388822"
					},
					"external": {
						"addPlant()": "infinite",
						"getPlant(uint256)": "infinite",
						"plantCounter()": "2469",
						"plants(uint256)": "infinite",
						"waterPlant(uint256)": "24821"
					}
				},
				"methodIdentifiers": {
					"addPlant()": "38cba41c",
					"getPlant(uint256)": "ed0b1f5f",
					"plantCounter()": "9c471749",
					"plants(uint256)": "8dd2361c",
					"waterPlant(uint256)": "9886bcfa"
				}
			},
			"storageLayout": {
				"storage": [
					{
						"astId": 23,
						"contract": "contracts/Session_01/LearnMultiplePlants.sol:LearnMultiplePlants",
						"label": "plants",
						"offset": 0,
						"slot": "0",
						"type": "t_mapping(t_uint256,t_struct(Plant)18_storage)"
					},
					{
						"astId": 25,
						"contract": "contracts/Session_01/LearnMultiplePlants.sol:LearnMultiplePlants",
						"label": "plantCounter",
						"offset": 0,
						"slot": "1",
						"type": "t_uint256"
					}
				],
				"types": {
					"t_address": {
						"encoding": "inplace",
						"label": "address",
						"numberOfBytes": "20"
					},
					"t_bool": {
						"encoding": "inplace",
						"label": "bool",
						"numberOfBytes": "1"
					},
					"t_enum(GrowthStage)6": {
						"encoding": "inplace",
						"label": "enum LearnMultiplePlants.GrowthStage",
						"numberOfBytes": "1"
					},
					"t_mapping(t_uint256,t_struct(Plant)18_storage)": {
						"encoding": "mapping",
						"key": "t_uint256",
						"label": "mapping(uint256 => struct LearnMultiplePlants.Plant)",
						"numberOfBytes": "32",
						"value": "t_struct(Plant)18_storage"
					},
					"t_struct(Plant)18_storage": {
						"encoding": "inplace",
						"label": "struct LearnMultiplePlants.Plant",
						"members": [
							{
								"astId": 8,
								"contract": "contracts/Session_01/LearnMultiplePlants.sol:LearnMultiplePlants",
								"label": "id",
								"offset": 0,
								"slot": "0",
								"type": "t_uint256"
							},
							{
								"astId": 10,
								"contract": "contracts/Session_01/LearnMultiplePlants.sol:LearnMultiplePlants",
								"label": "owner",
								"offset": 0,
								"slot": "1",
								"type": "t_address"
							},
							{
								"astId": 13,
								"contract": "contracts/Session_01/LearnMultiplePlants.sol:LearnMultiplePlants",
								"label": "stage",
								"offset": 20,
								"slot": "1",
								"type": "t_enum(GrowthStage)6"
							},
							{
								"astId": 15,
								"contract": "contracts/Session_01/LearnMultiplePlants.sol:LearnMultiplePlants",
								"label": "waterLevel",
								"offset": 21,
								"slot": "1",
								"type": "t_uint8"
							},
							{
								"astId": 17,
								"contract": "contracts/Session_01/LearnMultiplePlants.sol:LearnMultiplePlants",
								"label": "exists",
								"offset": 22,
								"slot": "1",
								"type": "t_bool"
							}
						],
						"numberOfBytes": "64"
					},
					"t_uint256": {
						"encoding": "inplace",
						"label": "uint256",
						"numberOfBytes": "32"
					},
					"t_uint8": {
						"encoding": "inplace",
						"label": "uint8",
						"numberOfBytes": "1"
					}
				}
			},
			"userdoc": {
				"kind": "user",
				"methods": {},
				"version": 1
			}
		}
	}
}